0029029070999991901010106004+64333+023450FM-12+000599999V0202701N015919999999N0000001N9-00781+99999102001ADDGF108991999999999999999999
0029029070999991901010106004+64333+023450FM-12+000599999V0202701N015919999999N0000001N9+00021+99999102001ADDGF108991999999999999999999
0029029070999991901010106004+64333+023450FM-12+000599999V0202701N015919999999N0000001N9+00781+99999102001ADDGF108991999999999999999999
0029029070999991901010106004+64333+023450FM-12+000599999V0202701N015919999999N0000001N9+00781+99999102001ADDGF108991999999999999999999
0029029070999991902010106004+64333+023450FM-12+000599999V0202701N015919999999N0000001N9+00781+99999102001ADDGF108991999999999999999999
0029029070999991902010106004+64333+023450FM-12+000599999V0202701N015919999999N0000001N9+00781+99999102001ADDGF108991999999999999999999
0029029070999991902010106004+64333+023450FM-12+000599999V0202701N015919999999N0000001N9-00781+99999102001ADDGF108991999999999999999999
0029029070999991903010106004+64333+023450FM-12+000599999V0202701N015919999999N0000001N9-00781+99999102001ADDGF108991999999999999999999
0029029070999991903010106004+64333+023450FM-12+000599999V0202701N015919999999N0000001N9-00011+99999102001ADDGF108991999999999999999999
0029029070999991903010106004+64333+023450FM-12+000599999V0202701N015919999999N0000001N9+00021+99999102001ADDGF108991999999999999999999
0029029070999991904010106004+64333+023450FM-12+000599999V0202701N015919999999N0000001N9+99999+99999102001ADDGF108991999999999999999999